{
  "_format": "hh-sol-artifact-1",
  "contractName": "SoulboundToken",
  "sourceName": "contracts/SoulboundToken.sol",
  "abi": [
    {
      "inputs": [],
      "stateMutability": "nonpayable",
      "type": "constructor"
    },
    {
      "inputs": [
        {
          "internalType": "address",
          "name": "sender",
          "type": "address"
        },
        {
          "internalType": "uint256",
          "name": "tokenId",
          "type": "uint256"
        },
        {
          "internalType": "address",
          "name": "owner",
          "type": "address"
        }
      ],
      "name": "ERC721IncorrectOwner",
      "type": "error"
    },
    {
      "inputs": [
        {
          "internalType": "address",
          "name": "operator",
          "type": "address"
        },
        {
          "internalType": "uint256",
          "name": "tokenId",
          "type": "uint256"
        }
      ],
      "name": "ERC721InsufficientApproval",
      "type": "error"
    },
    {
      "inputs": [
        {
          "internalType": "address",
          "name": "approver",
          "type": "address"
        }
      ],
      "name": "ERC721InvalidApprover",
      "type": "error"
    },
    {
      "inputs": [
        {
          "internalType": "address",
          "name": "operator",
          "type": "address"
        }
      ],
      "name": "ERC721InvalidOperator",
      "type": "error"
    },
    {
      "inputs": [
        {
          "internalType": "address",
          "name": "owner",
          "type": "address"
        }
      ],
      "name": "ERC721InvalidOwner",
      "type": "error"
    },
    {
      "inputs": [
        {
          "internalType": "address",
          "name": "receiver",
          "type": "address"
        }
      ],
      "name": "ERC721InvalidReceiver",
      "type": "error"
    },
    {
      "inputs": [
        {
          "internalType": "address",
          "name": "sender",
          "type": "address"
        }
      ],
      "name": "ERC721InvalidSender",
      "type": "error"
    },
    {
      "inputs": [
        {
          "internalType": "uint256",
          "name": "tokenId",
          "type": "uint256"
        }
      ],
      "name": "ERC721NonexistentToken",
      "type": "error"
    },
    {
      "inputs": [],
      "name": "EnforcedPause",
      "type": "error"
    },
    {
      "inputs": [],
      "name": "ExpectedPause",
      "type": "error"
    },
    {
      "inputs": [
        {
          "internalType": "address",
          "name": "owner",
          "type": "address"
        }
      ],
      "name": "OwnableInvalidOwner",
      "type": "error"
    },
    {
      "inputs": [
        {
          "internalType": "address",
          "name": "account",
          "type": "address"
        }
      ],
      "name": "OwnableUnauthorizedAccount",
      "type": "error"
    },
    {
      "anonymous": false,
      "inputs": [
        {
          "indexed": true,
          "internalType": "address",
          "name": "owner",
          "type": "address"
        },
        {
          "indexed": true,
          "internalType": "address",
          "name": "approved",
          "type": "address"
        },
        {
          "indexed": true,
          "internalType": "uint256",
          "name": "tokenId",
          "type": "uint256"
        }
      ],
      "name": "Approval",
      "type": "event"
    },
    {
      "anonymous": false,
      "inputs": [
        {
          "indexed": true,
          "internalType": "address",
          "name": "owner",
          "type": "address"
        },
        {
          "indexed": true,
          "internalType": "address",
          "name": "operator",
          "type": "address"
        },
        {
          "indexed": false,
          "internalType": "bool",
          "name": "approved",
          "type": "bool"
        }
      ],
      "name": "ApprovalForAll",
      "type": "event"
    },
    {
      "anonymous": false,
      "inputs": [
        {
          "indexed": false,
          "internalType": "uint256",
          "name": "_fromTokenId",
          "type": "uint256"
        },
        {
          "indexed": false,
          "internalType": "uint256",
          "name": "_toTokenId",
          "type": "uint256"
        }
      ],
      "name": "BatchMetadataUpdate",
      "type": "event"
    },
    {
      "anonymous": false,
      "inputs": [
        {
          "indexed": false,
          "internalType": "uint256",
          "name": "_tokenId",
          "type": "uint256"
        }
      ],
      "name": "MetadataUpdate",
      "type": "event"
    },
    {
      "anonymous": false,
      "inputs": [
        {
          "indexed": true,
          "internalType": "address",
          "name": "previousOwner",
          "type": "address"
        },
        {
          "indexed": true,
          "internalType": "address",
          "name": "newOwner",
          "type": "address"
        }
      ],
      "name": "OwnershipTransferred",
      "type": "event"
    },
    {
      "anonymous": false,
      "inputs": [
        {
          "indexed": false,
          "internalType": "address",
          "name": "account",
          "type": "address"
        }
      ],
      "name": "Paused",
      "type": "event"
    },
    {
      "anonymous": false,
      "inputs": [
        {
          "indexed": true,
          "internalType": "address",
          "name": "from",
          "type": "address"
        },
        {
          "indexed": true,
          "internalType": "address",
          "name": "to",
          "type": "address"
        },
        {
          "indexed": true,
          "internalType": "uint256",
          "name": "tokenId",
          "type": "uint256"
        }
      ],
      "name": "Transfer",
      "type": "event"
    },
    {
      "anonymous": false,
      "inputs": [
        {
          "indexed": false,
          "internalType": "address",
          "name": "account",
          "type": "address"
        }
      ],
      "name": "Unpaused",
      "type": "event"
    },
    {
      "inputs": [
        {
          "internalType": "address",
          "name": "verifier",
          "type": "address"
        },
        {
          "internalType": "string",
          "name": "organizationCode",
          "type": "string"
        }
      ],
      "name": "addVerifier",
      "outputs": [],
      "stateMutability": "nonpayable",
      "type": "function"
    },
    {
      "inputs": [
        {
          "internalType": "address",
          "name": "to",
          "type": "address"
        },
        {
          "internalType": "uint256",
          "name": "tokenId",
          "type": "uint256"
        }
      ],
      "name": "approve",
      "outputs": [],
      "stateMutability": "nonpayable",
      "type": "function"
    },
    {
      "inputs": [
        {
          "internalType": "address",
          "name": "owner",
          "type": "address"
        }
      ],
      "name": "balanceOf",
      "outputs": [
        {
          "internalType": "uint256",
          "name": "",
          "type": "uint256"
        }
      ],
      "stateMutability": "view",
      "type": "function"
    },
    {
      "inputs": [
        {
          "internalType": "uint256",
          "name": "tokenId",
          "type": "uint256"
        }
      ],
      "name": "getApproved",
      "outputs": [
        {
          "internalType": "address",
          "name": "",
          "type": "address"
        }
      ],
      "stateMutability": "view",
      "type": "function"
    },
    {
      "inputs": [],
      "name": "getMySBTs",
      "outputs": [
        {
          "components": [
            {
              "internalType": "uint256",
              "name": "sBTId",
              "type": "uint256"
            },
            {
              "internalType": "string",
              "name": "fullName",
              "type": "string"
            },
            {
              "internalType": "string",
              "name": "certificateHash",
              "type": "string"
            },
            {
              "internalType": "string",
              "name": "citizenID",
              "type": "string"
            },
            {
              "internalType": "string",
              "name": "hometown",
              "type": "string"
            },
            {
              "internalType": "string",
              "name": "nationality",
              "type": "string"
            },
            {
              "internalType": "uint256",
              "name": "birthDate",
              "type": "uint256"
            },
            {
              "internalType": "address",
              "name": "ownerAddress",
              "type": "address"
            }
          ],
          "internalType": "struct SoulboundToken.SBTInfo[]",
          "name": "",
          "type": "tuple[]"
        }
      ],
      "stateMutability": "view",
      "type": "function"
    },
    {
      "inputs": [
        {
          "internalType": "address",
          "name": "addr",
          "type": "address"
        }
      ],
      "name": "getOrganizationCode",
      "outputs": [
        {
          "internalType": "string",
          "name": "",
          "type": "string"
        }
      ],
      "stateMutability": "view",
      "type": "function"
    },
    {
      "inputs": [],
      "name": "getOrganizationCodes",
      "outputs": [
        {
          "internalType": "string[]",
          "name": "",
          "type": "string[]"
        }
      ],
      "stateMutability": "view",
      "type": "function"
    },
    {
      "inputs": [
        {
          "internalType": "string",
          "name": "targetOrganizationCode",
          "type": "string"
        }
      ],
      "name": "getVerifiersByOrganizationCode",
      "outputs": [
        {
          "internalType": "address[]",
          "name": "",
          "type": "address[]"
        }
      ],
      "stateMutability": "view",
      "type": "function"
    },
    {
      "inputs": [
        {
          "internalType": "uint256",
          "name": "",
          "type": "uint256"
        }
      ],
      "name": "idToSBT",
      "outputs": [
        {
          "internalType": "uint256",
          "name": "sBTId",
          "type": "uint256"
        },
        {
          "internalType": "string",
          "name": "fullName",
          "type": "string"
        },
        {
          "internalType": "string",
          "name": "certificateHash",
          "type": "string"
        },
        {
          "internalType": "string",
          "name": "citizenID",
          "type": "string"
        },
        {
          "internalType": "string",
          "name": "hometown",
          "type": "string"
        },
        {
          "internalType": "string",
          "name": "nationality",
          "type": "string"
        },
        {
          "internalType": "uint256",
          "name": "birthDate",
          "type": "uint256"
        },
        {
          "internalType": "address",
          "name": "ownerAddress",
          "type": "address"
        }
      ],
      "stateMutability": "view",
      "type": "function"
    },
    {
      "inputs": [
        {
          "internalType": "address",
          "name": "owner",
          "type": "address"
        },
        {
          "internalType": "address",
          "name": "operator",
          "type": "address"
        }
      ],
      "name": "isApprovedForAll",
      "outputs": [
        {
          "internalType": "bool",
          "name": "",
          "type": "bool"
        }
      ],
      "stateMutability": "view",
      "type": "function"
    },
    {
      "inputs": [
        {
          "internalType": "address",
          "name": "addr",
          "type": "address"
        }
      ],
      "name": "isVerifier",
      "outputs": [
        {
          "internalType": "bool",
          "name": "",
          "type": "bool"
        }
      ],
      "stateMutability": "view",
      "type": "function"
    },
    {
      "inputs": [
        {
          "internalType": "address",
          "name": "recipient",
          "type": "address"
        },
        {
          "internalType": "string",
          "name": "myTokenURI",
          "type": "string"
        }
      ],
      "name": "mintSBTForAddress",
      "outputs": [],
      "stateMutability": "nonpayable",
      "type": "function"
    },
    {
      "inputs": [],
      "name": "name",
      "outputs": [
        {
          "internalType": "string",
          "name": "",
          "type": "string"
        }
      ],
      "stateMutability": "view",
      "type": "function"
    },
    {
      "inputs": [],
      "name": "owner",
      "outputs": [
        {
          "internalType": "address",
          "name": "",
          "type": "address"
        }
      ],
      "stateMutability": "view",
      "type": "function"
    },
    {
      "inputs": [
        {
          "internalType": "uint256",
          "name": "tokenId",
          "type": "uint256"
        }
      ],
      "name": "ownerOf",
      "outputs": [
        {
          "internalType": "address",
          "name": "",
          "type": "address"
        }
      ],
      "stateMutability": "view",
      "type": "function"
    },
    {
      "inputs": [],
      "name": "paused",
      "outputs": [
        {
          "internalType": "bool",
          "name": "",
          "type": "bool"
        }
      ],
      "stateMutability": "view",
      "type": "function"
    },
    {
      "inputs": [
        {
          "internalType": "bytes32",
          "name": "_ethSignedMessageHash",
          "type": "bytes32"
        },
        {
          "internalType": "bytes",
          "name": "_sig",
          "type": "bytes"
        }
      ],
      "name": "recover",
      "outputs": [
        {
          "internalType": "address",
          "name": "",
          "type": "address"
        }
      ],
      "stateMutability": "pure",
      "type": "function"
    },
    {
      "inputs": [
        {
          "internalType": "address",
          "name": "verifier",
          "type": "address"
        }
      ],
      "name": "removeVerifier",
      "outputs": [],
      "stateMutability": "nonpayable",
      "type": "function"
    },
    {
      "inputs": [],
      "name": "renounceOwnership",
      "outputs": [],
      "stateMutability": "nonpayable",
      "type": "function"
    },
    {
      "inputs": [
        {
          "internalType": "address",
          "name": "from",
          "type": "address"
        },
        {
          "internalType": "address",
          "name": "to",
          "type": "address"
        },
        {
          "internalType": "uint256",
          "name": "tokenId",
          "type": "uint256"
        }
      ],
      "name": "safeTransferFrom",
      "outputs": [],
      "stateMutability": "nonpayable",
      "type": "function"
    },
    {
      "inputs": [
        {
          "internalType": "address",
          "name": "from",
          "type": "address"
        },
        {
          "internalType": "address",
          "name": "to",
          "type": "address"
        },
        {
          "internalType": "uint256",
          "name": "tokenId",
          "type": "uint256"
        },
        {
          "internalType": "bytes",
          "name": "data",
          "type": "bytes"
        }
      ],
      "name": "safeTransferFrom",
      "outputs": [],
      "stateMutability": "nonpayable",
      "type": "function"
    },
    {
      "inputs": [
        {
          "internalType": "address",
          "name": "operator",
          "type": "address"
        },
        {
          "internalType": "bool",
          "name": "approved",
          "type": "bool"
        }
      ],
      "name": "setApprovalForAll",
      "outputs": [],
      "stateMutability": "nonpayable",
      "type": "function"
    },
    {
      "inputs": [
        {
          "internalType": "bytes4",
          "name": "interfaceId",
          "type": "bytes4"
        }
      ],
      "name": "supportsInterface",
      "outputs": [
        {
          "internalType": "bool",
          "name": "",
          "type": "bool"
        }
      ],
      "stateMutability": "view",
      "type": "function"
    },
    {
      "inputs": [],
      "name": "symbol",
      "outputs": [
        {
          "internalType": "string",
          "name": "",
          "type": "string"
        }
      ],
      "stateMutability": "view",
      "type": "function"
    },
    {
      "inputs": [
        {
          "internalType": "uint256",
          "name": "tokenId",
          "type": "uint256"
        }
      ],
      "name": "tokenURI",
      "outputs": [
        {
          "internalType": "string",
          "name": "",
          "type": "string"
        }
      ],
      "stateMutability": "view",
      "type": "function"
    },
    {
      "inputs": [
        {
          "internalType": "address",
          "name": "from",
          "type": "address"
        },
        {
          "internalType": "address",
          "name": "to",
          "type": "address"
        },
        {
          "internalType": "uint256",
          "name": "tokenId",
          "type": "uint256"
        }
      ],
      "name": "transferFrom",
      "outputs": [],
      "stateMutability": "nonpayable",
      "type": "function"
    },
    {
      "inputs": [
        {
          "internalType": "address",
          "name": "newOwner",
          "type": "address"
        }
      ],
      "name": "transferOwnership",
      "outputs": [],
      "stateMutability": "nonpayable",
      "type": "function"
    },
    {
      "inputs": [
        {
          "internalType": "uint256",
          "name": "",
          "type": "uint256"
        }
      ],
      "name": "verifierAddresses",
      "outputs": [
        {
          "internalType": "address",
          "name": "",
          "type": "address"
        }
      ],
      "stateMutability": "view",
      "type": "function"
    },
    {
      "inputs": [
        {
          "internalType": "address",
          "name": "",
          "type": "address"
        }
      ],
      "name": "verifierList",
      "outputs": [
        {
          "internalType": "bool",
          "name": "isVerifier",
          "type": "bool"
        },
        {
          "internalType": "string",
          "name": "organizationCode",
          "type": "string"
        }
      ],
      "stateMutability": "view",
      "type": "function"
    }
  ],
  "bytecode": "0x608060405234801562000010575f80fd5b50336040518060400160405280600e81526020017f536f756c626f756e64546f6b656e0000000000000000000000000000000000008152506040518060400160405280600381526020017f5342540000000000000000000000000000000000000000000000000000000000815250815f90816200008e919062000470565b508060019081620000a0919062000470565b5050505f60075f6101000a81548160ff0219169083151502179055505f73ffffffffffffffffffffffffffffffffffffffff168173ffffffffffffffffffffffffffffffffffffffff16036200012f575f6040517f1e4fbdf700000000000000000000000000000000000000000000000000000000815260040162000126919062000597565b60405180910390fd5b62000140816200014760201b60201c565b50620005b2565b5f600760019054906101000a900473ffffffffffffffffffffffffffffffffffffffff16905081600760016101000a81548173ffffffffffffffffffffffffffffffffffffffff021916908373ffffffffffffffffffffffffffffffffffffffff1602179055508173ffffffffffffffffffffffffffffffffffffffff168173ffffffffffffffffffffffffffffffffffffffff167f8be0079c531659141344cd1fd0a4f28419497f9722a3daafe3b4186f6b6457e060405160405180910390a35050565b5f81519050919050565b7f4e487b71000000000000000000000000000000000000000000000000000000005f52604160045260245ffd5b7f4e487b71000000000000000000000000000000000000000000000000000000005f52602260045260245ffd5b5f60028204905060018216806200028857607f821691505b6020821081036200029e576200029d62000243565b5b50919050565b5f819050815f5260205f209050919050565b5f6020601f8301049050919050565b5f82821b905092915050565b5f60088302620003027fffffffffffffffffffffffffffffffffffffffffffffffffffffffffffffffff82620002c5565b6200030e8683620002c5565b95508019841693508086168417925050509392505050565b5f819050919050565b5f819050919050565b5f62000358620003526200034c8462000326565b6200032f565b62000326565b9050919050565b5f819050919050565b620003738362000338565b6200038b62000382826200035f565b848454620002d1565b825550505050565b5f90565b620003a162000393565b620003ae81848462000368565b505050565b5b81811015620003d557620003c95f8262000397565b600181019050620003b4565b5050565b601f8211156200042457620003ee81620002a4565b620003f984620002b6565b8101602085101562000409578190505b620004216200041885620002b6565b830182620003b3565b50505b505050565b5f82821c905092915050565b5f620004465f198460080262000429565b1980831691505092915050565b5f62000460838362000435565b9150826002028217905092915050565b6200047b826200020c565b67ffffffffffffffff81111562000497576200049662000216565b5b620004a3825462000270565b620004b0828285620003d9565b5f60209050601f831160018114620004e6575f8415620004d1578287015190505b620004dd858262000453565b8655506200054c565b601f198416620004f686620002a4565b5f5b828110156200051f57848901518255600182019150602085019450602081019050620004f8565b868310156200053f57848901516200053b601f89168262000435565b8355505b6001600288020188555050505b505050505050565b5f73ffffffffffffffffffffffffffffffffffffffff82169050919050565b5f6200057f8262000554565b9050919050565b620005918162000573565b82525050565b5f602082019050620005ac5f83018462000586565b92915050565b61498280620005c05f395ff3fe608060405234801561000f575f80fd5b50600436106101cd575f3560e01c80636de0539811610102578063b88d4fde116100a0578063d5c48a311161006f578063d5c48a311461056a578063e985e9c51461059b578063f2fde38b146105cb578063fc3949eb146105e7576101cd565b8063b88d4fde146104d2578063c368572f146104ee578063c87b56dd1461051e578063ca2dfd0a1461054e576101cd565b80637340792a116100dc5780637340792a1461045e5780638da5cb5b1461047a57806395d89b4114610498578063a22cb465146104b6576101cd565b80636de05398146103f457806370a0823114610424578063715018a614610454576101cd565b8063331052181161016f57806342842e0e1161014957806342842e0e1461035a5780635c975abb146103765780636352211e14610394578063657ad668146103c4576101cd565b806333105218146102d5578063355d39981461030557806337520e7814610323576101cd565b8063095ea7b3116101ab578063095ea7b31461024f5780630f003ff71461026b57806319045a251461028957806323b872dd146102b9576101cd565b806301ffc9a7146101d157806306fdde0314610201578063081812fc1461021f575b5f80fd5b6101eb60048036038101906101e6919061344c565b610603565b6040516101f89190613491565b60405180910390f35b610209610614565b6040516102169190613534565b60405180910390f35b61023960048036038101906102349190613587565b6106a3565b60405161024691906135f1565b60405180910390f35b61026960048036038101906102649190613634565b6106be565b005b6102736106d4565b604051610280919061385c565b60405180910390f35b6102a3600480360381019061029e91906139db565b610be7565b6040516102b091906135f1565b60405180910390f35b6102d360048036038101906102ce9190613a35565b610c51565b005b6102ef60048036038101906102ea9190613a85565b610d50565b6040516102fc9190613491565b60405180910390f35b61030d610da4565b60405161031a9190613b6b565b60405180910390f35b61033d60048036038101906103389190613587565b610e78565b604051610351989796959493929190613b9a565b60405180910390f35b610374600480360381019061036f9190613a35565b611179565b005b61037e611198565b60405161038b9190613491565b60405180910390f35b6103ae60048036038101906103a99190613587565b6111ad565b6040516103bb91906135f1565b60405180910390f35b6103de60048036038101906103d99190613a85565b6111be565b6040516103eb9190613534565b60405180910390f35b61040e60048036038101906104099190613587565b61128e565b60405161041b91906135f1565b60405180910390f35b61043e60048036038101906104399190613a85565b6112c9565b60405161044b9190613c39565b60405180910390f35b61045c61137f565b005b61047860048036038101906104739190613cf0565b611392565b005b610482611519565b60405161048f91906135f1565b60405180910390f35b6104a0611542565b6040516104ad9190613534565b60405180910390f35b6104d060048036038101906104cb9190613d74565b6115d2565b005b6104ec60048036038101906104e79190613db2565b6115e8565b005b61050860048036038101906105039190613e32565b611605565b6040516105159190613f21565b60405180910390f35b61053860048036038101906105339190613587565b61184b565b6040516105459190613534565b60405180910390f35b61056860048036038101906105639190613a85565b61185d565b005b610584600480360381019061057f9190613a85565b611d74565b604051610592929190613f41565b60405180910390f35b6105b560048036038101906105b09190613f6f565b611e26565b6040516105c29190613491565b60405180910390f35b6105e560048036038101906105e09190613a85565b611eb4565b005b61060160048036038101906105fc9190613cf0565b611f38565b005b5f61060d82611ff3565b9050919050565b60605f805461062290613fda565b80601f016020809104026020016040519081016040528092919081815260200182805461064e90613fda565b80156106995780601f1061067057610100808354040283529160200191610699565b820191905f5260205f20905b81548152906001019060200180831161067c57829003601f168201915b5050505050905090565b5f6106ad82612053565b506106b7826120d9565b9050919050565b6106d082826106cb612112565b612119565b5050565b60605f6106e1600861212b565b90505f80600190505b82811161077a573373ffffffffffffffffffffffffffffffffffffffff1660095f8381526020019081526020015f206007015f9054906101000a900473ffffffffffffffffffffffffffffffffffffffff1673ffffffffffffffffffffffffffffffffffffffff1603610767576001826107649190614037565b91505b80806107729061406a565b9150506106ea565b505f8167ffffffffffffffff811115610796576107956138b7565b5b6040519080825280602002602001820160405280156107cf57816020015b6107bc613336565b8152602001906001900390816107b45790505b5090505f80600190505b848111610bdc573373ffffffffffffffffffffffffffffffffffffffff1660095f8381526020019081526020015f206007015f9054906101000a900473ffffffffffffffffffffffffffffffffffffffff1673ffffffffffffffffffffffffffffffffffffffff1603610bc95760095f8281526020019081526020015f20604051806101000160405290815f820154815260200160018201805461087c90613fda565b80601f01602080910402602001604051908101604052809291908181526020018280546108a890613fda565b80156108f35780601f106108ca576101008083540402835291602001916108f3565b820191905f5260205f20905b8154815290600101906020018083116108d657829003601f168201915b5050505050815260200160028201805461090c90613fda565b80601f016020809104026020016040519081016040528092919081815260200182805461093890613fda565b80156109835780601f1061095a57610100808354040283529160200191610983565b820191905f5260205f20905b81548152906001019060200180831161096657829003601f168201915b5050505050815260200160038201805461099c90613fda565b80601f01602080910402602001604051908101604052809291908181526020018280546109c890613fda565b8015610a135780601f106109ea57610100808354040283529160200191610a13565b820191905f5260205f20905b8154815290600101906020018083116109f657829003601f168201915b50505050508152602001600482018054610a2c90613fda565b80601f0160208091040260200160405190810160405280929190818152602001828054610a5890613fda565b8015610aa35780601f10610a7a57610100808354040283529160200191610aa3565b820191905f5260205f20905b815481529060010190602001808311610a8657829003601f168201915b50505050508152602001600582018054610abc90613fda565b80601f0160208091040260200160405190810160405280929190818152602001828054610ae890613fda565b8015610b335780601f10610b0a57610100808354040283529160200191610b33565b820191905f5260205f20905b815481529060010190602001808311610b1657829003601f168201915b5050505050815260200160068201548152602001600782015f9054906101000a900473ffffffffffffffffffffffffffffffffffffffff1673ffffffffffffffffffffffffffffffffffffffff1673ffffffffffffffffffffffffffffffffffffffff1681525050838381518110610bae57610bad6140b1565b5b6020026020010181905250600182610bc69190614037565b91505b8080610bd49061406a565b9150506107d9565b508194505050505090565b5f805f80610bf485612137565b9250925092506001868285856040515f8152602001604052604051610c1c9493929190614108565b6020604051602081039080840390855afa158015610c3c573d5f803e3d5ffd5b50505060206040510351935050505092915050565b5f73ffffffffffffffffffffffffffffffffffffffff168273ffffffffffffffffffffffffffffffffffffffff1603610cc1575f6040517f64a0ae92000000000000000000000000000000000000000000000000000000008152600401610cb891906135f1565b60405180910390fd5b5f610cd48383610ccf612112565b61219c565b90508373ffffffffffffffffffffffffffffffffffffffff168173ffffffffffffffffffffffffffffffffffffffff1614610d4a578382826040517f64283d7b000000000000000000000000000000000000000000000000000000008152600401610d419392919061414b565b60405180910390fd5b50505050565b5f600a5f8373ffffffffffffffffffffffffffffffffffffffff1673ffffffffffffffffffffffffffffffffffffffff1681526020019081526020015f205f015f9054906101000a900460ff169050919050565b6060600d805480602002602001604051908101604052809291908181526020015f905b82821015610e6f578382905f5260205f20018054610de490613fda565b80601f0160208091040260200160405190810160405280929190818152602001828054610e1090613fda565b8015610e5b5780601f10610e3257610100808354040283529160200191610e5b565b820191905f5260205f20905b815481529060010190602001808311610e3e57829003601f168201915b505050505081526020019060010190610dc7565b50505050905090565b6009602052805f5260405f205f91509050805f015490806001018054610e9d90613fda565b80601f0160208091040260200160405190810160405280929190818152602001828054610ec990613fda565b8015610f145780601f10610eeb57610100808354040283529160200191610f14565b820191905f5260205f20905b815481529060010190602001808311610ef757829003601f168201915b505050505090806002018054610f2990613fda565b80601f0160208091040260200160405190810160405280929190818152602001828054610f5590613fda565b8015610fa05780601f10610f7757610100808354040283529160200191610fa0565b820191905f5260205f20905b815481529060010190602001808311610f8357829003601f168201915b505050505090806003018054610fb590613fda565b80601f0160208091040260200160405190810160405280929190818152602001828054610fe190613fda565b801561102c5780601f106110035761010080835404028352916020019161102c565b820191905f5260205f20905b81548152906001019060200180831161100f57829003601f168201915b50505050509080600401805461104190613fda565b80601f016020809104026020016040519081016040528092919081815260200182805461106d90613fda565b80156110b85780601f1061108f576101008083540402835291602001916110b8565b820191905f5260205f20905b81548152906001019060200180831161109b57829003601f168201915b5050505050908060050180546110cd90613fda565b80601f01602080910402602001604051908101604052809291908181526020018280546110f990613fda565b80156111445780601f1061111b57610100808354040283529160200191611144565b820191905f5260205f20905b81548152906001019060200180831161112757829003601f168201915b505050505090806006015490806007015f9054906101000a900473ffffffffffffffffffffffffffffffffffffffff16905088565b61119383838360405180602001604052805f8152506115e8565b505050565b5f60075f9054906101000a900460ff16905090565b5f6111b782612053565b9050919050565b6060600a5f8373ffffffffffffffffffffffffffffffffffffffff1673ffffffffffffffffffffffffffffffffffffffff1681526020019081526020015f20600101805461120b90613fda565b80601f016020809104026020016040519081016040528092919081815260200182805461123790613fda565b80156112825780601f1061125957610100808354040283529160200191611282565b820191905f5260205f20905b81548152906001019060200180831161126557829003601f168201915b50505050509050919050565b600b818154811061129d575f80fd5b905f5260205f20015f915054906101000a900473ffffffffffffffffffffffffffffffffffffffff1681565b5f8073ffffffffffffffffffffffffffffffffffffffff168273ffffffffffffffffffffffffffffffffffffffff160361133a575f6040517f89c62b6400000000000000000000000000000000000000000000000000000000815260040161133191906135f1565b60405180910390fd5b60035f8373ffffffffffffffffffffffffffffffffffffffff1673ffffffffffffffffffffffffffffffffffffffff1681526020019081526020015f20549050919050565b611387612266565b6113905f6122ed565b565b604051806040016040528060011515815260200182815250600a5f8473ffffffffffffffffffffffffffffffffffffffff1673ffffffffffffffffffffffffffffffffffffffff1681526020019081526020015f205f820151815f015f6101000a81548160ff0219169083151502179055506020820151816001019081611419919061431d565b50905050600b82908060018154018082558091505060019003905f5260205f20015f9091909190916101000a81548173ffffffffffffffffffffffffffffffffffffffff021916908373ffffffffffffffffffffffffffffffffffffffff160217905550600c8160405161148d9190614426565b90815260200160405180910390205f9054906101000a900460ff16611515576001600c826040516114be9190614426565b90815260200160405180910390205f6101000a81548160ff021916908315150217905550600d81908060018154018082558091505060019003905f5260205f20015f909190919091509081611513919061431d565b505b5050565b5f600760019054906101000a900473ffffffffffffffffffffffffffffffffffffffff16905090565b60606001805461155190613fda565b80601f016020809104026020016040519081016040528092919081815260200182805461157d90613fda565b80156115c85780601f1061159f576101008083540402835291602001916115c8565b820191905f5260205f20905b8154815290600101906020018083116115ab57829003601f168201915b5050505050905090565b6115e46115dd612112565b83836123b2565b5050565b6115f3848484610c51565b6115ff8484848461251b565b50505050565b60605f60605f5b600b805490508110156116d7575f600b828154811061162e5761162d6140b1565b5b905f5260205f20015f9054906101000a900473ffffffffffffffffffffffffffffffffffffffff1690508580519060200120600a5f8373ffffffffffffffffffffffffffffffffffffffff1673ffffffffffffffffffffffffffffffffffffffff1681526020019081526020015f206001016040516116ad91906144d8565b6040518091039020036116c95783806116c59061406a565b9450505b50808060010191505061160c565b508167ffffffffffffffff8111156116f2576116f16138b7565b5b6040519080825280602002602001820160405280156117205781602001602082028036833780820191505090505b5090505f805b600b8054905081101561183f575f600b8281548110611748576117476140b1565b5b905f5260205f20015f9054906101000a900473ffffffffffffffffffffffffffffffffffffffff1690508680519060200120600a5f8373ffffffffffffffffffffffffffffffffffffffff1673ffffffffffffffffffffffffffffffffffffffff1681526020019081526020015f206001016040516117c791906144d8565b60405180910390200361183157808484815181106117e8576117e76140b1565b5b602002602001019073ffffffffffffffffffffffffffffffffffffffff16908173ffffffffffffffffffffffffffffffffffffffff1681525050828061182d9061406a565b9350505b508080600101915050611726565b50819350505050919050565b6060611856826126cd565b9050919050565b600a5f8273ffffffffffffffffffffffffffffffffffffffff1673ffffffffffffffffffffffffffffffffffffffff1681526020019081526020015f205f015f9054906101000a900460ff166118e8576040517f08c379a00000000000000000000000000000000000000000000000000000000081526004016118df90614538565b60405180910390fd5b5f600a5f8373ffffffffffffffffffffffffffffffffffffffff1673ffffffffffffffffffffffffffffffffffffffff1681526020019081526020015f20600101805461193490613fda565b80601f016020809104026020016040519081016040528092919081815260200182805461196090613fda565b80156119ab5780601f10611982576101008083540402835291602001916119ab565b820191905f5260205f20905b81548152906001019060200180831161198e57829003601f168201915b50505050509050600a5f8373ffffffffffffffffffffffffffffffffffffffff1673ffffffffffffffffffffffffffffffffffffffff1681526020019081526020015f205f8082015f6101000a81549060ff0219169055600182015f611a11919061338e565b50505f5b600b80549050811015611b8c578273ffffffffffffffffffffffffffffffffffffffff16600b8281548110611a4d57611a4c6140b1565b5b905f5260205f20015f9054906101000a900473ffffffffffffffffffffffffffffffffffffffff1673ffffffffffffffffffffffffffffffffffffffff1603611b7f57600b6001600b80549050611aa49190614556565b81548110611ab557611ab46140b1565b5b905f5260205f20015f9054906101000a900473ffffffffffffffffffffffffffffffffffffffff16600b8281548110611af157611af06140b1565b5b905f5260205f20015f6101000a81548173ffffffffffffffffffffffffffffffffffffffff021916908373ffffffffffffffffffffffffffffffffffffffff160217905550600b805480611b4857611b47614589565b5b600190038181905f5260205f20015f6101000a81549073ffffffffffffffffffffffffffffffffffffffff02191690559055611b8c565b8080600101915050611a15565b505f805b600b80549050811015611c50578280519060200120600a5f600b8481548110611bbc57611bbb6140b1565b5b905f5260205f20015f9054906101000a900473ffffffffffffffffffffffffffffffffffffffff1673ffffffffffffffffffffffffffffffffffffffff1673ffffffffffffffffffffffffffffffffffffffff1681526020019081526020015f20600101604051611c2d91906144d8565b604051809103902003611c435760019150611c50565b8080600101915050611b90565b5080611d6f575f600c83604051611c679190614426565b90815260200160405180910390205f6101000a81548160ff0219169083151502179055505f5b600d80549050811015611d6d578280519060200120600d8281548110611cb657611cb56140b1565b5b905f5260205f2001604051611ccb91906144d8565b604051809103902003611d6057600d6001600d80549050611cec9190614556565b81548110611cfd57611cfc6140b1565b5b905f5260205f2001600d8281548110611d1957611d186140b1565b5b905f5260205f20019081611d2d91906145dd565b50600d805480611d4057611d3f614589565b5b600190038181905f5260205f20015f611d59919061338e565b9055611d6d565b8080600101915050611c8d565b505b505050565b600a602052805f5260405f205f91509050805f015f9054906101000a900460ff1690806001018054611da590613fda565b80601f0160208091040260200160405190810160405280929190818152602001828054611dd190613fda565b8015611e1c5780601f10611df357610100808354040283529160200191611e1c565b820191905f5260205f20905b815481529060010190602001808311611dff57829003601f168201915b5050505050905082565b5f60055f8473ffffffffffffffffffffffffffffffffffffffff1673ffffffffffffffffffffffffffffffffffffffff1681526020019081526020015f205f8373ffffffffffffffffffffffffffffffffffffffff1673ffffffffffffffffffffffffffffffffffffffff1681526020019081526020015f205f9054906101000a900460ff16905092915050565b611ebc612266565b5f73ffffffffffffffffffffffffffffffffffffffff168173ffffffffffffffffffffffffffffffffffffffff1603611f2c575f6040517f1e4fbdf7000000000000000000000000000000000000000000000000000000008152600401611f2391906135f1565b60405180910390fd5b611f35816122ed565b50565b600a5f3373ffffffffffffffffffffffffffffffffffffffff1673ffffffffffffffffffffffffffffffffffffffff1681526020019081526020015f205f015f9054906101000a900460ff16611fc3576040517f08c379a0000000000000000000000000000000000000000000000000000000008152600401611fba9061470c565b60405180910390fd5b611fcd60086127d8565b5f611fd8600861212b565b9050611fe483826127ec565b611fee8183612809565b505050565b5f634906490660e01b7bffffffffffffffffffffffffffffffffffffffffffffffffffffffff1916827bffffffffffffffffffffffffffffffffffffffffffffffffffffffff1916148061204c575061204b82612863565b5b9050919050565b5f8061205e83612944565b90505f73ffffffffffffffffffffffffffffffffffffffff168173ffffffffffffffffffffffffffffffffffffffff16036120d057826040517f7e2732890000000000000000000000000000000000000000000000000000000081526004016120c79190613c39565b60405180910390fd5b80915050919050565b5f60045f8381526020019081526020015f205f9054906101000a900473ffffffffffffffffffffffffffffffffffffffff169050919050565b5f33905090565b612126838383600161297d565b505050565b5f815f01549050919050565b5f805f604184511461217e576040517f08c379a000000000000000000000000000000000000000000000000000000000815260040161217590614774565b60405180910390fd5b602084015192506040840151915060608401515f1a90509193909250565b5f806121a784612944565b90505f73ffffffffffffffffffffffffffffffffffffffff168173ffffffffffffffffffffffffffffffffffffffff161415801561221157505f73ffffffffffffffffffffffffffffffffffffffff168573ffffffffffffffffffffffffffffffffffffffff1614155b15612251576040517f08c379a0000000000000000000000000000000000000000000000000000000008152600401612248906147dc565b60405180910390fd5b61225c858585612b3c565b9150509392505050565b61226e612112565b73ffffffffffffffffffffffffffffffffffffffff1661228c611519565b73ffffffffffffffffffffffffffffffffffffffff16146122eb576122af612112565b6040517f118cdaa70000000000000000000000000000000000000000000000000000000081526004016122e291906135f1565b60405180910390fd5b565b5f600760019054906101000a900473ffffffffffffffffffffffffffffffffffffffff16905081600760016101000a81548173ffffffffffffffffffffffffffffffffffffffff021916908373ffffffffffffffffffffffffffffffffffffffff1602179055508173ffffffffffffffffffffffffffffffffffffffff168173ffffffffffffffffffffffffffffffffffffffff167f8be0079c531659141344cd1fd0a4f28419497f9722a3daafe3b4186f6b6457e060405160405180910390a35050565b5f73ffffffffffffffffffffffffffffffffffffffff168273ffffffffffffffffffffffffffffffffffffffff160361242257816040517f5b08ba1800000000000000000000000000000000000000000000000000000000815260040161241991906135f1565b60405180910390fd5b8060055f8573ffffffffffffffffffffffffffffffffffffffff1673ffffffffffffffffffffffffffffffffffffffff1681526020019081526020015f205f8473ffffffffffffffffffffffffffffffffffffffff1673ffffffffffffffffffffffffffffffffffffffff1681526020019081526020015f205f6101000a81548160ff0219169083151502179055508173ffffffffffffffffffffffffffffffffffffffff168373ffffffffffffffffffffffffffffffffffffffff167f17307eab39ab6107e8899845ad3d59bd9653f200f220920489ca2b5937696c318360405161250e9190613491565b60405180910390a3505050565b5f8373ffffffffffffffffffffffffffffffffffffffff163b11156126c7578273ffffffffffffffffffffffffffffffffffffffff1663150b7a0261255e612112565b8685856040518563ffffffff1660e01b8152600401612580949392919061484c565b6020604051808303815f875af19250505080156125bb57506040513d601f19601f820116820180604052508101906125b891906148aa565b60015b61263c573d805f81146125e9576040519150601f19603f3d011682016040523d82523d5f602084013e6125ee565b606091505b505f81510361263457836040517f64a0ae9200000000000000000000000000000000000000000000000000000000815260040161262b91906135f1565b60405180910390fd5b805181602001fd5b63150b7a0260e01b7bffffffffffffffffffffffffffffffffffffffffffffffffffffffff1916817bffffffffffffffffffffffffffffffffffffffffffffffffffffffff1916146126c557836040517f64a0ae920000000000000000000000000000000000000000000000000000000081526004016126bc91906135f1565b60405180910390fd5b505b50505050565b60606126d882612053565b505f60065f8481526020019081526020015f2080546126f690613fda565b80601f016020809104026020016040519081016040528092919081815260200182805461272290613fda565b801561276d5780601f106127445761010080835404028352916020019161276d565b820191905f5260205f20905b81548152906001019060200180831161275057829003601f168201915b505050505090505f61277d612b59565b90505f8151036127915781925050506127d3565b5f825111156127c55780826040516020016127ad9291906148d5565b604051602081830303815290604052925050506127d3565b6127ce84612b6f565b925050505b919050565b6001815f015f828254019250508190555050565b612805828260405180602001604052805f815250612bd5565b5050565b8060065f8481526020019081526020015f209081612827919061431d565b507ff8e1a15aba9398e019f0b49df1a4fde98ee17ae345cb5f6b5e2c27f5033e8ce7826040516128579190613c39565b60405180910390a15050565b5f7f80ac58cd000000000000000000000000000000000000000000000000000000007bffffffffffffffffffffffffffffffffffffffffffffffffffffffff1916827bffffffffffffffffffffffffffffffffffffffffffffffffffffffff1916148061292d57507f5b5e139f000000000000000000000000000000000000000000000000000000007bffffffffffffffffffffffffffffffffffffffffffffffffffffffff1916827bffffffffffffffffffffffffffffffffffffffffffffffffffffffff1916145b8061293d575061293c82612bf0565b5b9050919050565b5f60025f8381526020019081526020015f205f9054906101000a900473ffffffffffffffffffffffffffffffffffffffff169050919050565b80806129b557505f73ffffffffffffffffffffffffffffffffffffffff168273ffffffffffffffffffffffffffffffffffffffff1614155b15612ae7575f6129c484612053565b90505f73ffffffffffffffffffffffffffffffffffffffff168373ffffffffffffffffffffffffffffffffffffffff1614158015612a2e57508273ffffffffffffffffffffffffffffffffffffffff168173ffffffffffffffffffffffffffffffffffffffff1614155b8015612a415750612a3f8184611e26565b155b15612a8357826040517fa9fbf51f000000000000000000000000000000000000000000000000000000008152600401612a7a91906135f1565b60405180910390fd5b8115612ae557838573ffffffffffffffffffffffffffffffffffffffff168273ffffffffffffffffffffffffffffffffffffffff167f8c5be1e5ebec7d5bd14f71427d1e84f3dd0314c0f7b2291e5b200ac8c7c3b92560405160405180910390a45b505b8360045f8581526020019081526020015f205f6101000a81548173ffffffffffffffffffffffffffffffffffffffff021916908373ffffffffffffffffffffffffffffffffffffffff16021790555050505050565b5f612b45612c59565b612b50848484612c9a565b90509392505050565b606060405180602001604052805f815250905090565b6060612b7a82612053565b505f612b84612b59565b90505f815111612ba25760405180602001604052805f815250612bcd565b80612bac84612ea5565b604051602001612bbd9291906148d5565b6040516020818303038152906040525b915050919050565b612bdf8383612f6f565b612beb5f84848461251b565b505050565b5f7f01ffc9a7000000000000000000000000000000000000000000000000000000007bffffffffffffffffffffffffffffffffffffffffffffffffffffffff1916827bffffffffffffffffffffffffffffffffffffffffffffffffffffffff1916149050919050565b612c61611198565b15612c98576040517fd93c066500000000000000000000000000000000000000000000000000000000815260040160405180910390fd5b565b5f80612ca584612944565b90505f73ffffffffffffffffffffffffffffffffffffffff168373ffffffffffffffffffffffffffffffffffffffff1614612ce657612ce5818486613062565b5b5f73ffffffffffffffffffffffffffffffffffffffff168173ffffffffffffffffffffffffffffffffffffffff1614612d7157612d255f855f8061297d565b600160035f8373ffffffffffffffffffffffffffffffffffffffff1673ffffffffffffffffffffffffffffffffffffffff1681526020019081526020015f205f82825403925050819055505b5f73ffffffffffffffffffffffffffffffffffffffff168573ffffffffffffffffffffffffffffffffffffffff1614612df057600160035f8773ffffffffffffffffffffffffffffffffffffffff1673ffffffffffffffffffffffffffffffffffffffff1681526020019081526020015f205f82825401925050819055505b8460025f8681526020019081526020015f205f6101000a81548173ffffffffffffffffffffffffffffffffffffffff021916908373ffffffffffffffffffffffffffffffffffffffff160217905550838573ffffffffffffffffffffffffffffffffffffffff168273ffffffffffffffffffffffffffffffffffffffff167fddf252ad1be2c89b69c2b068fc378daa952ba7f163c4a11628f55a4df523b3ef60405160405180910390a4809150509392505050565b60605f6001612eb384613125565b0190505f8167ffffffffffffffff811115612ed157612ed06138b7565b5b6040519080825280601f01601f191660200182016040528015612f035781602001600182028036833780820191505090505b5090505f82602001820190505b600115612f64578080600190039150507f3031323334353637383961626364656600000000000000000000000000000000600a86061a8153600a8581612f5957612f586148f8565b5b0494505f8503612f10575b819350505050919050565b5f73ffffffffffffffffffffffffffffffffffffffff168273ffffffffffffffffffffffffffffffffffffffff1603612fdf575f6040517f64a0ae92000000000000000000000000000000000000000000000000000000008152600401612fd691906135f1565b60405180910390fd5b5f612feb83835f61219c565b90505f73ffffffffffffffffffffffffffffffffffffffff168173ffffffffffffffffffffffffffffffffffffffff161461305d575f6040517f73c6ac6e00000000000000000000000000000000000000000000000000000000815260040161305491906135f1565b60405180910390fd5b505050565b61306d838383613276565b613120575f73ffffffffffffffffffffffffffffffffffffffff168373ffffffffffffffffffffffffffffffffffffffff16036130e157806040517f7e2732890000000000000000000000000000000000000000000000000000000081526004016130d89190613c39565b60405180910390fd5b81816040517f177e802f000000000000000000000000000000000000000000000000000000008152600401613117929190614925565b60405180910390fd5b505050565b5f805f90507a184f03e93ff9f4daa797ed6e38ed64bf6a1f0100000000000000008310613181577a184f03e93ff9f4daa797ed6e38ed64bf6a1f0100000000000000008381613177576131766148f8565b5b0492506040810190505b6d04ee2d6d415b85acef810000000083106131be576d04ee2d6d415b85acef810000000083816131b4576131b36148f8565b5b0492506020810190505b662386f26fc1000083106131ed57662386f26fc1000083816131e3576131e26148f8565b5b0492506010810190505b6305f5e1008310613216576305f5e100838161320c5761320b6148f8565b5b0492506008810190505b612710831061323b576127108381613231576132306148f8565b5b0492506004810190505b6064831061325e5760648381613254576132536148f8565b5b0492506002810190505b600a831061326d576001810190505b80915050919050565b5f8073ffffffffffffffffffffffffffffffffffffffff168373ffffffffffffffffffffffffffffffffffffffff161415801561332d57508273ffffffffffffffffffffffffffffffffffffffff168473ffffffffffffffffffffffffffffffffffffffff1614806132ee57506132ed8484611e26565b5b8061332c57508273ffffffffffffffffffffffffffffffffffffffff16613314836120d9565b73ffffffffffffffffffffffffffffffffffffffff16145b5b90509392505050565b6040518061010001604052805f815260200160608152602001606081526020016060815260200160608152602001606081526020015f81526020015f73ffffffffffffffffffffffffffffffffffffffff1681525090565b50805461339a90613fda565b5f825580601f106133ab57506133c8565b601f0160209004905f5260205f20908101906133c791906133cb565b5b50565b5b808211156133e2575f815f9055506001016133cc565b5090565b5f604051905090565b5f80fd5b5f80fd5b5f7fffffffff0000000000000000000000000000000000000000000000000000000082169050919050565b61342b816133f7565b8114613435575f80fd5b50565b5f8135905061344681613422565b92915050565b5f60208284031215613461576134606133ef565b5b5f61346e84828501613438565b91505092915050565b5f8115159050919050565b61348b81613477565b82525050565b5f6020820190506134a45f830184613482565b92915050565b5f81519050919050565b5f82825260208201905092915050565b5f5b838110156134e15780820151818401526020810190506134c6565b5f8484015250505050565b5f601f19601f8301169050919050565b5f613506826134aa565b61351081856134b4565b93506135208185602086016134c4565b613529816134ec565b840191505092915050565b5f6020820190508181035f83015261354c81846134fc565b905092915050565b5f819050919050565b61356681613554565b8114613570575f80fd5b50565b5f813590506135818161355d565b92915050565b5f6020828403121561359c5761359b6133ef565b5b5f6135a984828501613573565b91505092915050565b5f73ffffffffffffffffffffffffffffffffffffffff82169050919050565b5f6135db826135b2565b9050919050565b6135eb816135d1565b82525050565b5f6020820190506136045f8301846135e2565b92915050565b613613816135d1565b811461361d575f80fd5b50565b5f8135905061362e8161360a565b92915050565b5f806040838503121561364a576136496133ef565b5b5f61365785828601613620565b925050602061366885828601613573565b9150509250929050565b5f81519050919050565b5f82825260208201905092915050565b5f819050602082019050919050565b6136a481613554565b82525050565b5f82825260208201905092915050565b5f6136c4826134aa565b6136ce81856136aa565b93506136de8185602086016134c4565b6136e7816134ec565b840191505092915050565b6136fb816135d1565b82525050565b5f61010083015f8301516137175f86018261369b565b506020830151848203602086015261372f82826136ba565b9150506040830151848203604086015261374982826136ba565b9150506060830151848203606086015261376382826136ba565b9150506080830151848203608086015261377d82826136ba565b91505060a083015184820360a086015261379782826136ba565b91505060c08301516137ac60c086018261369b565b5060e08301516137bf60e08601826136f2565b508091505092915050565b5f6137d58383613701565b905092915050565b5f602082019050919050565b5f6137f382613672565b6137fd818561367c565b93508360208202850161380f8561368c565b805f5b8581101561384a578484038952815161382b85826137ca565b9450613836836137dd565b925060208a01995050600181019050613812565b50829750879550505050505092915050565b5f6020820190508181035f83015261387481846137e9565b905092915050565b5f819050919050565b61388e8161387c565b8114613898575f80fd5b50565b5f813590506138a981613885565b92915050565b5f80fd5b5f80fd5b7f4e487b71000000000000000000000000000000000000000000000000000000005f52604160045260245ffd5b6138ed826134ec565b810181811067ffffffffffffffff8211171561390c5761390b6138b7565b5b80604052505050565b5f61391e6133e6565b905061392a82826138e4565b919050565b5f67ffffffffffffffff821115613949576139486138b7565b5b613952826134ec565b9050602081019050919050565b828183375f83830152505050565b5f61397f61397a8461392f565b613915565b90508281526020810184848401111561399b5761399a6138b3565b5b6139a684828561395f565b509392505050565b5f82601f8301126139c2576139c16138af565b5b81356139d284826020860161396d565b91505092915050565b5f80604083850312156139f1576139f06133ef565b5b5f6139fe8582860161389b565b925050602083013567ffffffffffffffff811115613a1f57613a1e6133f3565b5b613a2b858286016139ae565b9150509250929050565b5f805f60608486031215613a4c57613a4b6133ef565b5b5f613a5986828701613620565b9350506020613a6a86828701613620565b9250506040613a7b86828701613573565b9150509250925092565b5f60208284031215613a9a57613a996133ef565b5b5f613aa784828501613620565b91505092915050565b5f81519050919050565b5f82825260208201905092915050565b5f819050602082019050919050565b5f613ae483836136ba565b905092915050565b5f602082019050919050565b5f613b0282613ab0565b613b0c8185613aba565b935083602082028501613b1e85613aca565b805f5b85811015613b595784840389528151613b3a8582613ad9565b9450613b4583613aec565b925060208a01995050600181019050613b21565b50829750879550505050505092915050565b5f6020820190508181035f830152613b838184613af8565b905092915050565b613b9481613554565b82525050565b5f61010082019050613bae5f83018b613b8b565b8181036020830152613bc0818a6134fc565b90508181036040830152613bd481896134fc565b90508181036060830152613be881886134fc565b90508181036080830152613bfc81876134fc565b905081810360a0830152613c1081866134fc565b9050613c1f60c0830185613b8b565b613c2c60e08301846135e2565b9998505050505050505050565b5f602082019050613c4c5f830184613b8b565b92915050565b5f67ffffffffffffffff821115613c6c57613c6b6138b7565b5b613c75826134ec565b9050602081019050919050565b5f613c94613c8f84613c52565b613915565b905082815260208101848484011115613cb057613caf6138b3565b5b613cbb84828561395f565b509392505050565b5f82601f830112613cd757613cd66138af565b5b8135613ce7848260208601613c82565b91505092915050565b5f8060408385031215613d0657613d056133ef565b5b5f613d1385828601613620565b925050602083013567ffffffffffffffff811115613d3457613d336133f3565b5b613d4085828601613cc3565b9150509250929050565b613d5381613477565b8114613d5d575f80fd5b50565b5f81359050613d6e81613d4a565b92915050565b5f8060408385031215613d8a57613d896133ef565b5b5f613d9785828601613620565b9250506020613da885828601613d60565b9150509250929050565b5f805f8060808587031215613dca57613dc96133ef565b5b5f613dd787828801613620565b9450506020613de887828801613620565b9350506040613df987828801613573565b925050606085013567ffffffffffffffff811115613e1a57613e196133f3565b5b613e26878288016139ae565b91505092959194509250565b5f60208284031215613e4757613e466133ef565b5b5f82013567ffffffffffffffff811115613e6457613e636133f3565b5b613e7084828501613cc3565b91505092915050565b5f81519050919050565b5f82825260208201905092915050565b5f819050602082019050919050565b5f613ead83836136f2565b60208301905092915050565b5f602082019050919050565b5f613ecf82613e79565b613ed98185613e83565b9350613ee483613e93565b805f5b83811015613f14578151613efb8882613ea2565b9750613f0683613eb9565b925050600181019050613ee7565b5085935050505092915050565b5f6020820190508181035f830152613f398184613ec5565b905092915050565b5f604082019050613f545f830185613482565b8181036020830152613f6681846134fc565b90509392505050565b5f8060408385031215613f8557613f846133ef565b5b5f613f9285828601613620565b9250506020613fa385828601613620565b9150509250929050565b7f4e487b71000000000000000000000000000000000000000000000000000000005f52602260045260245ffd5b5f6002820490506001821680613ff157607f821691505b60208210810361400457614003613fad565b5b50919050565b7f4e487b71000000000000000000000000000000000000000000000000000000005f52601160045260245ffd5b5f61404182613554565b915061404c83613554565b92508282019050808211156140645761406361400a565b5b92915050565b5f61407482613554565b91507fffffffffffffffffffffffffffffffffffffffffffffffffffffffffffffffff82036140a6576140a561400a565b5b600182019050919050565b7f4e487b71000000000000000000000000000000000000000000000000000000005f52603260045260245ffd5b6140e78161387c565b82525050565b5f60ff82169050919050565b614102816140ed565b82525050565b5f60808201905061411b5f8301876140de565b61412860208301866140f9565b61413560408301856140de565b61414260608301846140de565b95945050505050565b5f60608201905061415e5f8301866135e2565b61416b6020830185613b8b565b61417860408301846135e2565b949350505050565b5f819050815f5260205f209050919050565b5f6020601f8301049050919050565b5f82821b905092915050565b5f600883026141dc7fffffffffffffffffffffffffffffffffffffffffffffffffffffffffffffffff826141a1565b6141e686836141a1565b95508019841693508086168417925050509392505050565b5f819050919050565b5f61422161421c61421784613554565b6141fe565b613554565b9050919050565b5f819050919050565b61423a83614207565b61424e61424682614228565b8484546141ad565b825550505050565b5f90565b614262614256565b61426d818484614231565b505050565b5b81811015614290576142855f8261425a565b600181019050614273565b5050565b601f8211156142d5576142a681614180565b6142af84614192565b810160208510156142be578190505b6142d26142ca85614192565b830182614272565b50505b505050565b5f82821c905092915050565b5f6142f55f19846008026142da565b1980831691505092915050565b5f61430d83836142e6565b9150826002028217905092915050565b614326826134aa565b67ffffffffffffffff81111561433f5761433e6138b7565b5b6143498254613fda565b614354828285614294565b5f60209050601f831160018114614385575f8415614373578287015190505b61437d8582614302565b8655506143e4565b601f19841661439386614180565b5f5b828110156143ba57848901518255600182019150602085019450602081019050614395565b868310156143d757848901516143d3601f8916826142e6565b8355505b6001600288020188555050505b505050505050565b5f81905092915050565b5f614400826134aa565b61440a81856143ec565b935061441a8185602086016134c4565b80840191505092915050565b5f61443182846143f6565b915081905092915050565b5f81905092915050565b5f819050815f5260205f209050919050565b5f815461446481613fda565b61446e818661443c565b9450600182165f8114614488576001811461449d576144cf565b60ff19831686528115158202860193506144cf565b6144a685614446565b5f5b838110156144c7578154818901526001820191506020810190506144a8565b838801955050505b50505092915050565b5f6144e38284614458565b915081905092915050565b7f41646472657373206973206e6f742061207665726966696572000000000000005f82015250565b5f6145226019836134b4565b915061452d826144ee565b602082019050919050565b5f6020820190508181035f83015261454f81614516565b9050919050565b5f61456082613554565b915061456b83613554565b92508282039050818111156145835761458261400a565b5b92915050565b7f4e487b71000000000000000000000000000000000000000000000000000000005f52603160045260245ffd5b5f815490506145c481613fda565b9050919050565b5f819050815f5260205f209050919050565b8181036145eb5750506146c0565b6145f4826145b6565b67ffffffffffffffff81111561460d5761460c6138b7565b5b6146178254613fda565b614622828285614294565b5f601f83116001811461464f575f841561463d578287015490505b6146478582614302565b8655506146b9565b601f19841661465d876145cb565b965061466886614180565b5f5b8281101561468f5784890154825560018201915060018501945060208101905061466a565b868310156146ac57848901546146a8601f8916826142e6565b8355505b6001600288020188555050505b5050505050505b565b7f43616c6c6572206973206e6f74206120766572696669657200000000000000005f82015250565b5f6146f66018836134b4565b9150614701826146c2565b602082019050919050565b5f6020820190508181035f830152614723816146ea565b9050919050565b7f696e76616c6964207369676e6174757265206c656e67746800000000000000005f82015250565b5f61475e6018836134b4565b91506147698261472a565b602082019050919050565b5f6020820190508181035f83015261478b81614752565b9050919050565b7f536f756c626f756e643a205472616e73666572206661696c65640000000000005f82015250565b5f6147c6601a836134b4565b91506147d182614792565b602082019050919050565b5f6020820190508181035f8301526147f3816147ba565b9050919050565b5f81519050919050565b5f82825260208201905092915050565b5f61481e826147fa565b6148288185614804565b93506148388185602086016134c4565b614841816134ec565b840191505092915050565b5f60808201905061485f5f8301876135e2565b61486c60208301866135e2565b6148796040830185613b8b565b818103606083015261488b8184614814565b905095945050505050565b5f815190506148a481613422565b92915050565b5f602082840312156148bf576148be6133ef565b5b5f6148cc84828501614896565b91505092915050565b5f6148e082856143f6565b91506148ec82846143f6565b91508190509392505050565b7f4e487b71000000000000000000000000000000000000000000000000000000005f52601260045260245ffd5b5f6040820190506149385f8301856135e2565b6149456020830184613b8b565b939250505056fea264697066735822122052a9e818290db0c59e7625f6e1237df92c176bb2dc788ec2bcc2230aebfc562564736f6c63430008180033",
  "linkReferences": {},
  "deployedLinkReferences": {}
}